00COTAHIST.2017BOVESPA 20170906                                                                                                                                                                                                                      
012017010202AALR3       010ALLIAR      ON      NM   R$  000000000146200000000014880000000001440000000000145800000000014600000000001460000000000147300087000000000000035900000000000052350500000000000000009999123100000010000000000000BRAALRACNOR6100
012017010210ABCB2       010ABC BRASIL  DIR PRE N2   R$  000000000028500000000002850000000000285000000000028500000000002850000000000200000000000000000001000000000000000200000000000000057000000000000000009999123100000010000000000000BRABCBD10PR0126
012017010202ABCB4       010ABC BRASIL  PN  EJS N2   R$  000000000134000000000013520000000001308000000000133000000000013310000000001331000000000133400998000000000000195800000000000260557000000000000000009999123100000010000000000000BRABCBACNPR4127
012017010296ABCB4F      020ABC BRASIL  PN  EJS N2   R$  000000000134500000000013480000000001315000000000132900000000013260000000001326000000000134800020000000000000000582000000000000773943000000000000009999123100000010000000000000BRABCBACNPR4127
012017010212ABCP11      010FII ABC IMOBCI  ER       R$  000000000118300000000011830000000001101000000000116200000000011360000000001138000000000120500019000000000000001210000000000001407143000000000000009999123100000010000000000000BRABCPCTF000255
012017010202ABEV3       010AMBEV S/A   ON  EJ       R$  000000000163400000000016660000000001626000000000164200000000016310000000001631000000000163609421000000000004265400000000007004006700000000000000009999123100000010000000000000BRABEVACNOR1115
012017090612XTED11      010FII TRXE CORCI           R$  000000000218900000000021890000000002100000000000210400000000021500000000002100000000000214900005000000000000000211000000000000443995000000000000009999123100000010000000000000BRXTEDCTF006143
99COTAHIST.2017BOVESPA 2017090600000330110                                                                                                                                                                                                           
